{
    "_format": "hh-sol-artifact-1",
    "contractName": "MyEpicNFT",
    "sourceName": "contracts/MyEpicNFT.sol",
    "abi": [
        {
            "inputs": [],
            "stateMutability": "nonpayable",
            "type": "constructor"
        },
        {
            "anonymous": false,
            "inputs": [
                {
                    "indexed": true,
                    "internalType": "address",
                    "name": "owner",
                    "type": "address"
                },
                {
                    "indexed": true,
                    "internalType": "address",
                    "name": "approved",
                    "type": "address"
                },
                {
                    "indexed": true,
                    "internalType": "uint256",
                    "name": "tokenId",
                    "type": "uint256"
                }
            ],
            "name": "Approval",
            "type": "event"
        },
        {
            "anonymous": false,
            "inputs": [
                {
                    "indexed": true,
                    "internalType": "address",
                    "name": "owner",
                    "type": "address"
                },
                {
                    "indexed": true,
                    "internalType": "address",
                    "name": "operator",
                    "type": "address"
                },
                {
                    "indexed": false,
                    "internalType": "bool",
                    "name": "approved",
                    "type": "bool"
                }
            ],
            "name": "ApprovalForAll",
            "type": "event"
        },
        {
            "anonymous": false,
            "inputs": [
                {
                    "indexed": false,
                    "internalType": "address",
                    "name": "sender",
                    "type": "address"
                },
                {
                    "indexed": false,
                    "internalType": "uint256",
                    "name": "tokenId",
                    "type": "uint256"
                }
            ],
            "name": "NewEpicNFTMinted",
            "type": "event"
        },
        {
            "anonymous": false,
            "inputs": [
                {
                    "indexed": true,
                    "internalType": "address",
                    "name": "from",
                    "type": "address"
                },
                {
                    "indexed": true,
                    "internalType": "address",
                    "name": "to",
                    "type": "address"
                },
                {
                    "indexed": true,
                    "internalType": "uint256",
                    "name": "tokenId",
                    "type": "uint256"
                }
            ],
            "name": "Transfer",
            "type": "event"
        },
        {
            "inputs": [
                {
                    "internalType": "address",
                    "name": "to",
                    "type": "address"
                },
                {
                    "internalType": "uint256",
                    "name": "tokenId",
                    "type": "uint256"
                }
            ],
            "name": "approve",
            "outputs": [],
            "stateMutability": "nonpayable",
            "type": "function"
        },
        {
            "inputs": [
                {
                    "internalType": "address",
                    "name": "owner",
                    "type": "address"
                }
            ],
            "name": "balanceOf",
            "outputs": [
                {
                    "internalType": "uint256",
                    "name": "",
                    "type": "uint256"
                }
            ],
            "stateMutability": "view",
            "type": "function"
        },
        {
            "inputs": [
                {
                    "internalType": "uint256",
                    "name": "tokenId",
                    "type": "uint256"
                }
            ],
            "name": "getApproved",
            "outputs": [
                {
                    "internalType": "address",
                    "name": "",
                    "type": "address"
                }
            ],
            "stateMutability": "view",
            "type": "function"
        },
        {
            "inputs": [],
            "name": "getMaxMints",
            "outputs": [
                {
                    "internalType": "uint256",
                    "name": "",
                    "type": "uint256"
                }
            ],
            "stateMutability": "view",
            "type": "function"
        },
        {
            "inputs": [],
            "name": "getTotalMinted",
            "outputs": [
                {
                    "internalType": "uint256",
                    "name": "",
                    "type": "uint256"
                }
            ],
            "stateMutability": "view",
            "type": "function"
        },
        {
            "inputs": [
                {
                    "internalType": "address",
                    "name": "owner",
                    "type": "address"
                },
                {
                    "internalType": "address",
                    "name": "operator",
                    "type": "address"
                }
            ],
            "name": "isApprovedForAll",
            "outputs": [
                {
                    "internalType": "bool",
                    "name": "",
                    "type": "bool"
                }
            ],
            "stateMutability": "view",
            "type": "function"
        },
        {
            "inputs": [],
            "name": "makeAnEpicNFT",
            "outputs": [],
            "stateMutability": "nonpayable",
            "type": "function"
        },
        {
            "inputs": [],
            "name": "name",
            "outputs": [
                {
                    "internalType": "string",
                    "name": "",
                    "type": "string"
                }
            ],
            "stateMutability": "view",
            "type": "function"
        },
        {
            "inputs": [
                {
                    "internalType": "uint256",
                    "name": "tokenId",
                    "type": "uint256"
                }
            ],
            "name": "ownerOf",
            "outputs": [
                {
                    "internalType": "address",
                    "name": "",
                    "type": "address"
                }
            ],
            "stateMutability": "view",
            "type": "function"
        },
        {
            "inputs": [
                {
                    "internalType": "uint256",
                    "name": "tokenId",
                    "type": "uint256"
                }
            ],
            "name": "pickRandomColor",
            "outputs": [
                {
                    "internalType": "string",
                    "name": "",
                    "type": "string"
                }
            ],
            "stateMutability": "view",
            "type": "function"
        },
        {
            "inputs": [
                {
                    "internalType": "uint256",
                    "name": "tokenId",
                    "type": "uint256"
                }
            ],
            "name": "pickRandomFirstWord",
            "outputs": [
                {
                    "internalType": "string",
                    "name": "",
                    "type": "string"
                }
            ],
            "stateMutability": "view",
            "type": "function"
        },
        {
            "inputs": [
                {
                    "internalType": "uint256",
                    "name": "tokenId",
                    "type": "uint256"
                }
            ],
            "name": "pickRandomSecondWord",
            "outputs": [
                {
                    "internalType": "string",
                    "name": "",
                    "type": "string"
                }
            ],
            "stateMutability": "view",
            "type": "function"
        },
        {
            "inputs": [
                {
                    "internalType": "uint256",
                    "name": "tokenId",
                    "type": "uint256"
                }
            ],
            "name": "pickRandomThirdWord",
            "outputs": [
                {
                    "internalType": "string",
                    "name": "",
                    "type": "string"
                }
            ],
            "stateMutability": "view",
            "type": "function"
        },
        {
            "inputs": [
                {
                    "internalType": "address",
                    "name": "from",
                    "type": "address"
                },
                {
                    "internalType": "address",
                    "name": "to",
                    "type": "address"
                },
                {
                    "internalType": "uint256",
                    "name": "tokenId",
                    "type": "uint256"
                }
            ],
            "name": "safeTransferFrom",
            "outputs": [],
            "stateMutability": "nonpayable",
            "type": "function"
        },
        {
            "inputs": [
                {
                    "internalType": "address",
                    "name": "from",
                    "type": "address"
                },
                {
                    "internalType": "address",
                    "name": "to",
                    "type": "address"
                },
                {
                    "internalType": "uint256",
                    "name": "tokenId",
                    "type": "uint256"
                },
                {
                    "internalType": "bytes",
                    "name": "_data",
                    "type": "bytes"
                }
            ],
            "name": "safeTransferFrom",
            "outputs": [],
            "stateMutability": "nonpayable",
            "type": "function"
        },
        {
            "inputs": [
                {
                    "internalType": "address",
                    "name": "operator",
                    "type": "address"
                },
                {
                    "internalType": "bool",
                    "name": "approved",
                    "type": "bool"
                }
            ],
            "name": "setApprovalForAll",
            "outputs": [],
            "stateMutability": "nonpayable",
            "type": "function"
        },
        {
            "inputs": [
                {
                    "internalType": "bytes4",
                    "name": "interfaceId",
                    "type": "bytes4"
                }
            ],
            "name": "supportsInterface",
            "outputs": [
                {
                    "internalType": "bool",
                    "name": "",
                    "type": "bool"
                }
            ],
            "stateMutability": "view",
            "type": "function"
        },
        {
            "inputs": [],
            "name": "symbol",
            "outputs": [
                {
                    "internalType": "string",
                    "name": "",
                    "type": "string"
                }
            ],
            "stateMutability": "view",
            "type": "function"
        },
        {
            "inputs": [
                {
                    "internalType": "uint256",
                    "name": "tokenId",
                    "type": "uint256"
                }
            ],
            "name": "tokenURI",
            "outputs": [
                {
                    "internalType": "string",
                    "name": "",
                    "type": "string"
                }
            ],
            "stateMutability": "view",
            "type": "function"
        },
        {
            "inputs": [
                {
                    "internalType": "address",
                    "name": "from",
                    "type": "address"
                },
                {
                    "internalType": "address",
                    "name": "to",
                    "type": "address"
                },
                {
                    "internalType": "uint256",
                    "name": "tokenId",
                    "type": "uint256"
                }
            ],
            "name": "transferFrom",
            "outputs": [],
            "stateMutability": "nonpayable",
            "type": "function"
        }
    ],
    "bytecode": "0x60806040526032600855600060095560405180610100016040528060d3815260200162004df460d39139600a90805190602001906200004092919062000e37565b5060405180608001604052806056815260200162004ec760569139600b90805190602001906200007292919062000e37565b50604051806101e001604052806040518060400160405280600681526020017f4c6f76696e67000000000000000000000000000000000000000000000000000081525081526020016040518060400160405280600781526020017f4f6e65726f75730000000000000000000000000000000000000000000000000081525081526020016040518060400160405280600581526020017f4e6170707900000000000000000000000000000000000000000000000000000081525081526020016040518060400160405280600581526020017f526f79616c00000000000000000000000000000000000000000000000000000081525081526020016040518060400160405280600581526020017f546869726400000000000000000000000000000000000000000000000000000081525081526020016040518060400160405280600881526020017f4d6572636966756c00000000000000000000000000000000000000000000000081525081526020016040518060400160405280600681526020017f436c6f756479000000000000000000000000000000000000000000000000000081525081526020016040518060400160405280600381526020017f4d6164000000000000000000000000000000000000000000000000000000000081525081526020016040518060400160405280600581526020017f53696c6c7900000000000000000000000000000000000000000000000000000081525081526020016040518060400160405280600781526020017f48756c6b696e670000000000000000000000000000000000000000000000000081525081526020016040518060400160405280600b81526020017f456e636f75726167696e6700000000000000000000000000000000000000000081525081526020016040518060400160405280600581526020017f5461626f6f00000000000000000000000000000000000000000000000000000081525081526020016040518060400160405280600681526020017f556e66616972000000000000000000000000000000000000000000000000000081525081526020016040518060400160405280600481526020017f576973650000000000000000000000000000000000000000000000000000000081525081526020016040518060400160405280600781526020017f4e6f78696f757300000000000000000000000000000000000000000000000000815250815250600c90600f6200040492919062000ec8565b50604051806101c001604052806040518060400160405280600781526020017f43686f72697a6f0000000000000000000000000000000000000000000000000081525081526020016040518060400160405280600a81526020017f5665726d6963656c6c690000000000000000000000000000000000000000000081525081526020016040518060400160405280600481526020017f4c6561660000000000000000000000000000000000000000000000000000000081525081526020016040518060400160405280600581526020017f437265616d00000000000000000000000000000000000000000000000000000081525081526020016040518060400160405280600781526020017f506173736174610000000000000000000000000000000000000000000000000081525081526020016040518060400160405280600481526020017f466973680000000000000000000000000000000000000000000000000000000081525081526020016040518060400160405280600681526020017f506570706572000000000000000000000000000000000000000000000000000081525081526020016040518060400160405280600581526020017f4f6e696f6e00000000000000000000000000000000000000000000000000000081525081526020016040518060400160405280600481526020017f546f66750000000000000000000000000000000000000000000000000000000081525081526020016040518060400160405280600681526020017f4761726c6963000000000000000000000000000000000000000000000000000081525081526020016040518060400160405280600981526020017f43686f636f6c617465000000000000000000000000000000000000000000000081525081526020016040518060400160405280600681526020017f50616e696e69000000000000000000000000000000000000000000000000000081525081526020016040518060400160405280600481526020017f537465770000000000000000000000000000000000000000000000000000000081525081526020016040518060400160405280600881526020017f43616c616d617269000000000000000000000000000000000000000000000000815250815250600d90600e6200075b92919062000f2f565b50604051806101e001604052806040518060400160405280600481526020017f4e6f64650000000000000000000000000000000000000000000000000000000081525081526020016040518060400160405280600781526020017f4172746973616e0000000000000000000000000000000000000000000000000081525081526020016040518060400160405280600781526020017f56656869636c650000000000000000000000000000000000000000000000000081525081526020016040518060400160405280600881526020017f446174616261736500000000000000000000000000000000000000000000000081525081526020016040518060400160405280600781526020017f446973656173650000000000000000000000000000000000000000000000000081525081526020016040518060400160405280600681526020017f576f726b6572000000000000000000000000000000000000000000000000000081525081526020016040518060400160405280600481526020017f48616c6c0000000000000000000000000000000000000000000000000000000081525081526020016040518060400160405280600581526020017f537465616b00000000000000000000000000000000000000000000000000000081525081526020016040518060400160405280600a81526020017f41746d6f7370686572650000000000000000000000000000000000000000000081525081526020016040518060400160405280600481526020017f4d6561740000000000000000000000000000000000000000000000000000000081525081526020016040518060400160405280600781526020017f5061796d656e740000000000000000000000000000000000000000000000000081525081526020016040518060400160405280600781526020017f436c75737465720000000000000000000000000000000000000000000000000081525081526020016040518060400160405280600481526020017f4d656e750000000000000000000000000000000000000000000000000000000081525081526020016040518060400160405280600881526020017f5265736f7572636500000000000000000000000000000000000000000000000081525081526020016040518060400160405280600681526020017f4c656e6774680000000000000000000000000000000000000000000000000000815250815250600e90600f62000aed92919062000ec8565b506040518060c001604052806040518060400160405280600781526020017f236666666630300000000000000000000000000000000000000000000000000081525081526020016040518060400160405280600781526020017f233030646633380000000000000000000000000000000000000000000000000081525081526020016040518060400160405280600781526020017f233030303030300000000000000000000000000000000000000000000000000081525081526020016040518060400160405280600781526020017f236666303030300000000000000000000000000000000000000000000000000081525081526020016040518060400160405280600781526020017f233030653665360000000000000000000000000000000000000000000000000081525081526020016040518060400160405280600781526020017f2330384332413800000000000000000000000000000000000000000000000000815250815250600f90600662000c6b92919062000f96565b5034801562000c7957600080fd5b506040518060400160405280600981526020017f5371756172654e465400000000000000000000000000000000000000000000008152506040518060400160405280600681526020017f5351554152450000000000000000000000000000000000000000000000000000815250816000908051906020019062000cfe92919062000e37565b50806001908051906020019062000d1792919062000e37565b50505062000d656040518060400160405280601d81526020017f45706963204e465420636f6e747261637420697320776f726b696e672100000081525062000d6b60201b6200130d1760201c565b620011b7565b62000e0b8160405160240162000d829190620010cb565b6040516020818303038152906040527f41304fac000000000000000000000000000000000000000000000000000000007bffffffffffffffffffffffffffffffffffffffffffffffffffffffff19166020820180517bffffffffffffffffffffffffffffffffffffffffffffffffffffffff838183161783525050505062000e0e60201b60201c565b50565b60008151905060006a636f6e736f6c652e6c6f679050602083016000808483855afa5050505050565b82805462000e459062001141565b90600052602060002090601f01602090048101928262000e69576000855562000eb5565b82601f1062000e8457805160ff191683800117855562000eb5565b8280016001018555821562000eb5579182015b8281111562000eb457825182559160200191906001019062000e97565b5b50905062000ec4919062000ffd565b5090565b82805482825590600052602060002090810192821562000f1c579160200282015b8281111562000f1b57825182908051906020019062000f0a92919062000e37565b509160200191906001019062000ee9565b5b50905062000f2b91906200101c565b5090565b82805482825590600052602060002090810192821562000f83579160200282015b8281111562000f8257825182908051906020019062000f7192919062000e37565b509160200191906001019062000f50565b5b50905062000f9291906200101c565b5090565b82805482825590600052602060002090810192821562000fea579160200282015b8281111562000fe957825182908051906020019062000fd892919062000e37565b509160200191906001019062000fb7565b5b50905062000ff991906200101c565b5090565b5b808211156200101857600081600090555060010162000ffe565b5090565b5b8082111562001040576000818162001036919062001044565b506001016200101d565b5090565b508054620010529062001141565b6000825580601f1062001066575062001087565b601f01602090049060005260206000209081019062001086919062000ffd565b5b50565b60006200109782620010ef565b620010a38185620010fa565b9350620010b58185602086016200110b565b620010c081620011a6565b840191505092915050565b60006020820190508181036000830152620010e781846200108a565b905092915050565b600081519050919050565b600082825260208201905092915050565b60005b838110156200112b5780820151818401526020810190506200110e565b838111156200113b576000848401525b50505050565b600060028204905060018216806200115a57607f821691505b6020821081141562001171576200117062001177565b5b50919050565b7f4e487b7100000000000000000000000000000000000000000000000000000000600052602260045260246000fd5b6000601f19601f8301169050919050565b613c2d80620011c76000396000f3fe608060405234801561001057600080fd5b506004361061012c5760003560e01c80636352211e116100ad578063b88d4fde11610071578063b88d4fde14610369578063c575757a14610385578063c87b56dd146103b5578063de9d132f146103e5578063e985e9c5146103ef5761012c565b80636352211e1461029f57806370a08231146102cf57806395d89b41146102ff578063a22cb4651461031d578063b187301f146103395761012c565b806323b872dd116100f457806323b872dd146101e95780632de38d681461020557806342842e0e14610235578063514dc8c6146102515780635bdf01c8146102815761012c565b806301ffc9a71461013157806306fdde0314610161578063081812fc1461017f578063095ea7b3146101af5780630ca1c5c9146101cb575b600080fd5b61014b600480360381019061014691906126ee565b61041f565b604051610158919061347a565b60405180910390f35b610169610501565b6040516101769190613495565b60405180910390f35b61019960048036038101906101949190612740565b610593565b6040516101a691906133ea565b60405180910390f35b6101c960048036038101906101c491906126b2565b610618565b005b6101d3610730565b6040516101e09190613715565b60405180910390f35b61020360048036038101906101fe91906125ac565b61073a565b005b61021f600480360381019061021a9190612740565b61079a565b60405161022c9190613495565b60405180910390f35b61024f600480360381019061024a91906125ac565b6108b8565b005b61026b60048036038101906102669190612740565b6108d8565b6040516102789190613495565b60405180910390f35b6102896109f6565b6040516102969190613715565b60405180910390f35b6102b960048036038101906102b49190612740565b610a00565b6040516102c691906133ea565b60405180910390f35b6102e960048036038101906102e49190612547565b610ab2565b6040516102f69190613715565b60405180910390f35b610307610b6a565b6040516103149190613495565b60405180910390f35b61033760048036038101906103329190612676565b610bfc565b005b610353600480360381019061034e9190612740565b610c12565b6040516103609190613495565b60405180910390f35b610383600480360381019061037e91906125fb565b610d30565b005b61039f600480360381019061039a9190612740565b610d92565b6040516103ac9190613495565b60405180910390f35b6103cf60048036038101906103ca9190612740565b610eb0565b6040516103dc9190613495565b60405180910390f35b6103ed611002565b005b61040960048036038101906104049190612570565b611279565b604051610416919061347a565b60405180910390f35b60007f80ac58cd000000000000000000000000000000000000000000000000000000007bffffffffffffffffffffffffffffffffffffffffffffffffffffffff1916827bffffffffffffffffffffffffffffffffffffffffffffffffffffffff191614806104ea57507f5b5e139f000000000000000000000000000000000000000000000000000000007bffffffffffffffffffffffffffffffffffffffffffffffffffffffff1916827bffffffffffffffffffffffffffffffffffffffffffffffffffffffff1916145b806104fa57506104f9826113a6565b5b9050919050565b606060008054610510906139b4565b80601f016020809104026020016040519081016040528092919081815260200182805461053c906139b4565b80156105895780601f1061055e57610100808354040283529160200191610589565b820191906000526020600020905b81548152906001019060200180831161056c57829003601f168201915b5050505050905090565b600061059e82611410565b6105dd576040517f08c379a00000000000000000000000000000000000000000000000000000000081526004016105d490613675565b60405180910390fd5b6004600083815260200190815260200160002060009054906101000a900473ffffffffffffffffffffffffffffffffffffffff169050919050565b600061062382610a00565b90508073ffffffffffffffffffffffffffffffffffffffff168373ffffffffffffffffffffffffffffffffffffffff161415610694576040517f08c379a000000000000000000000000000000000000000000000000000000000815260040161068b906136d5565b60405180910390fd5b8073ffffffffffffffffffffffffffffffffffffffff166106b361147c565b73ffffffffffffffffffffffffffffffffffffffff1614806106e257506106e1816106dc61147c565b611279565b5b610721576040517f08c379a000000000000000000000000000000000000000000000000000000000815260040161071890613595565b60405180910390fd5b61072b8383611484565b505050565b6000600954905090565b61074b61074561147c565b8261153d565b61078a576040517f08c379a0000000000000000000000000000000000000000000000000000000008152600401610781906136f5565b60405180910390fd5b61079583838361161b565b505050565b606060006107ce6107aa84611877565b6040516020016107ba91906133c8565b604051602081830303815290604052611a24565b9050600c80549050816107e19190613a2f565b9050600c818154811061081d577f4e487b7100000000000000000000000000000000000000000000000000000000600052603260045260246000fd5b906000526020600020018054610832906139b4565b80601f016020809104026020016040519081016040528092919081815260200182805461085e906139b4565b80156108ab5780601f10610880576101008083540402835291602001916108ab565b820191906000526020600020905b81548152906001019060200180831161088e57829003601f168201915b5050505050915050919050565b6108d383838360405180602001604052806000815250610d30565b505050565b6060600061090c6108e884611877565b6040516020016108f891906133a6565b604051602081830303815290604052611a24565b9050600f805490508161091f9190613a2f565b9050600f818154811061095b577f4e487b7100000000000000000000000000000000000000000000000000000000600052603260045260246000fd5b906000526020600020018054610970906139b4565b80601f016020809104026020016040519081016040528092919081815260200182805461099c906139b4565b80156109e95780601f106109be576101008083540402835291602001916109e9565b820191906000526020600020905b8154815290600101906020018083116109cc57829003601f168201915b5050505050915050919050565b6000600854905090565b6000806002600084815260200190815260200160002060009054906101000a900473ffffffffffffffffffffffffffffffffffffffff169050600073ffffffffffffffffffffffffffffffffffffffff168173ffffffffffffffffffffffffffffffffffffffff161415610aa9576040517f08c379a0000000000000000000000000000000000000000000000000000000008152600401610aa0906135d5565b60405180910390fd5b80915050919050565b60008073ffffffffffffffffffffffffffffffffffffffff168273ffffffffffffffffffffffffffffffffffffffff161415610b23576040517f08c379a0000000000000000000000000000000000000000000000000000000008152600401610b1a906135b5565b60405180910390fd5b600360008373ffffffffffffffffffffffffffffffffffffffff1673ffffffffffffffffffffffffffffffffffffffff168152602001908152602001600020549050919050565b606060018054610b79906139b4565b80601f0160208091040260200160405190810160405280929190818152602001828054610ba5906139b4565b8015610bf25780601f10610bc757610100808354040283529160200191610bf2565b820191906000526020600020905b815481529060010190602001808311610bd557829003601f168201915b5050505050905090565b610c0e610c0761147c565b8383611a57565b5050565b60606000610c46610c2284611877565b604051602001610c329190613384565b604051602081830303815290604052611a24565b9050600d8054905081610c599190613a2f565b9050600d8181548110610c95577f4e487b7100000000000000000000000000000000000000000000000000000000600052603260045260246000fd5b906000526020600020018054610caa906139b4565b80601f0160208091040260200160405190810160405280929190818152602001828054610cd6906139b4565b8015610d235780601f10610cf857610100808354040283529160200191610d23565b820191906000526020600020905b815481529060010190602001808311610d0657829003601f168201915b5050505050915050919050565b610d41610d3b61147c565b8361153d565b610d80576040517f08c379a0000000000000000000000000000000000000000000000000000000008152600401610d77906136f5565b60405180910390fd5b610d8c84848484611bc4565b50505050565b60606000610dc6610da284611877565b604051602001610db291906132fb565b604051602081830303815290604052611a24565b9050600e8054905081610dd99190613a2f565b9050600e8181548110610e15577f4e487b7100000000000000000000000000000000000000000000000000000000600052603260045260246000fd5b906000526020600020018054610e2a906139b4565b80601f0160208091040260200160405190810160405280929190818152602001828054610e56906139b4565b8015610ea35780601f10610e7857610100808354040283529160200191610ea3565b820191906000526020600020905b815481529060010190602001808311610e8657829003601f168201915b5050505050915050919050565b6060610ebb82611410565b610efa576040517f08c379a0000000000000000000000000000000000000000000000000000000008152600401610ef190613655565b60405180910390fd5b6000600660008481526020019081526020016000208054610f1a906139b4565b80601f0160208091040260200160405190810160405280929190818152602001828054610f46906139b4565b8015610f935780601f10610f6857610100808354040283529160200191610f93565b820191906000526020600020905b815481529060010190602001808311610f7657829003601f168201915b505050505090506000610fa4611c20565b9050600081511415610fba578192505050610ffd565b600082511115610fef578082604051602001610fd792919061323b565b60405160208183030381529060405292505050610ffd565b610ff884611c37565b925050505b919050565b600061100e6007611cde565b905060085460095410611056576040517f08c379a000000000000000000000000000000000000000000000000000000000815260040161104d90613615565b60405180910390fd5b60006110618261079a565b9050600061106e83610c12565b9050600061107b84610d92565b905060008383836040516020016110949392919061325f565b604051602081830303815290604052905060006110b0866108d8565b90506000600a82600b856040516020016110cd9493929190613290565b60405160208183030381529060405290506000611112846110ed84611cec565b6040516020016110fe92919061331d565b604051602081830303815290604052611cec565b90506000816040516020016111279190613362565b60405160208183030381529060405290506111766040518060400160405280601581526020017f0a2d2d2d2d2d2d2d2d2d2d2d2d2d2d2d2d2d2d2d2d000000000000000000000081525061130d565b61119e8160405160200161118a91906132d9565b60405160208183030381529060405261130d565b6111dc6040518060400160405280601581526020017f2d2d2d2d2d2d2d2d2d2d2d2d2d2d2d2d2d2d2d2d0a000000000000000000000081525061130d565b6111e6338a611e8b565b6111f08982611ea9565b6112136040518060600160405280602e8152602001613b8a602e91398a33611f1d565b61121d6007611fbc565b60096000815480929190611230906139e6565b91905055507febb98688741ffa4c7589bf325de30cf7becb63de567842e1ccdb6cb949fdc82c338a604051611266929190613451565b60405180910390a1505050505050505050565b6000600560008473ffffffffffffffffffffffffffffffffffffffff1673ffffffffffffffffffffffffffffffffffffffff16815260200190815260200160002060008373ffffffffffffffffffffffffffffffffffffffff1673ffffffffffffffffffffffffffffffffffffffff16815260200190815260200160002060009054906101000a900460ff16905092915050565b6113a3816040516024016113219190613495565b6040516020818303038152906040527f41304fac000000000000000000000000000000000000000000000000000000007bffffffffffffffffffffffffffffffffffffffffffffffffffffffff19166020820180517bffffffffffffffffffffffffffffffffffffffffffffffffffffffff8381831617835250505050611fd2565b50565b60007f01ffc9a7000000000000000000000000000000000000000000000000000000007bffffffffffffffffffffffffffffffffffffffffffffffffffffffff1916827bffffffffffffffffffffffffffffffffffffffffffffffffffffffff1916149050919050565b60008073ffffffffffffffffffffffffffffffffffffffff166002600084815260200190815260200160002060009054906101000a900473ffffffffffffffffffffffffffffffffffffffff1673ffffffffffffffffffffffffffffffffffffffff1614159050919050565b600033905090565b816004600083815260200190815260200160002060006101000a81548173ffffffffffffffffffffffffffffffffffffffff021916908373ffffffffffffffffffffffffffffffffffffffff160217905550808273ffffffffffffffffffffffffffffffffffffffff166114f783610a00565b73ffffffffffffffffffffffffffffffffffffffff167f8c5be1e5ebec7d5bd14f71427d1e84f3dd0314c0f7b2291e5b200ac8c7c3b92560405160405180910390a45050565b600061154882611410565b611587576040517f08c379a000000000000000000000000000000000000000000000000000000000815260040161157e90613575565b60405180910390fd5b600061159283610a00565b90508073ffffffffffffffffffffffffffffffffffffffff168473ffffffffffffffffffffffffffffffffffffffff16148061160157508373ffffffffffffffffffffffffffffffffffffffff166115e984610593565b73ffffffffffffffffffffffffffffffffffffffff16145b8061161257506116118185611279565b5b91505092915050565b8273ffffffffffffffffffffffffffffffffffffffff1661163b82610a00565b73ffffffffffffffffffffffffffffffffffffffff1614611691576040517f08c379a000000000000000000000000000000000000000000000000000000000815260040161168890613695565b60405180910390fd5b600073ffffffffffffffffffffffffffffffffffffffff168273ffffffffffffffffffffffffffffffffffffffff161415611701576040517f08c379a00000000000000000000000000000000000000000000000000000000081526004016116f890613535565b60405180910390fd5b61170c838383611ffb565b611717600082611484565b6001600360008573ffffffffffffffffffffffffffffffffffffffff1673ffffffffffffffffffffffffffffffffffffffff168152602001908152602001600020600082825461176791906138ca565b925050819055506001600360008473ffffffffffffffffffffffffffffffffffffffff1673ffffffffffffffffffffffffffffffffffffffff16815260200190815260200160002060008282546117be91906137e9565b92505081905550816002600083815260200190815260200160002060006101000a81548173ffffffffffffffffffffffffffffffffffffffff021916908373ffffffffffffffffffffffffffffffffffffffff160217905550808273ffffffffffffffffffffffffffffffffffffffff168473ffffffffffffffffffffffffffffffffffffffff167fddf252ad1be2c89b69c2b068fc378daa952ba7f163c4a11628f55a4df523b3ef60405160405180910390a4505050565b606060008214156118bf576040518060400160405280600181526020017f30000000000000000000000000000000000000000000000000000000000000008152509050611a1f565b600082905060005b600082146118f15780806118da906139e6565b915050600a826118ea919061383f565b91506118c7565b60008167ffffffffffffffff811115611933577f4e487b7100000000000000000000000000000000000000000000000000000000600052604160045260246000fd5b6040519080825280601f01601f1916602001820160405280156119655781602001600182028036833780820191505090505b5090505b60008514611a185760018261197e91906138ca565b9150600a8561198d9190613a2f565b603061199991906137e9565b60f81b8183815181106119d5577f4e487b7100000000000000000000000000000000000000000000000000000000600052603260045260246000fd5b60200101907effffffffffffffffffffffffffffffffffffffffffffffffffffffffffffff1916908160001a905350600a85611a11919061383f565b9450611969565b8093505050505b919050565b600081604051602001611a379190613224565b6040516020818303038152906040528051906020012060001c9050919050565b8173ffffffffffffffffffffffffffffffffffffffff168373ffffffffffffffffffffffffffffffffffffffff161415611ac6576040517f08c379a0000000000000000000000000000000000000000000000000000000008152600401611abd90613555565b60405180910390fd5b80600560008573ffffffffffffffffffffffffffffffffffffffff1673ffffffffffffffffffffffffffffffffffffffff16815260200190815260200160002060008473ffffffffffffffffffffffffffffffffffffffff1673ffffffffffffffffffffffffffffffffffffffff16815260200190815260200160002060006101000a81548160ff0219169083151502179055508173ffffffffffffffffffffffffffffffffffffffff168373ffffffffffffffffffffffffffffffffffffffff167f17307eab39ab6107e8899845ad3d59bd9653f200f220920489ca2b5937696c3183604051611bb7919061347a565b60405180910390a3505050565b611bcf84848461161b565b611bdb84848484612000565b611c1a576040517f08c379a0000000000000000000000000000000000000000000000000000000008152600401611c11906134f5565b60405180910390fd5b50505050565b606060405180602001604052806000815250905090565b6060611c4282611410565b611c81576040517f08c379a0000000000000000000000000000000000000000000000000000000008152600401611c78906136b5565b60405180910390fd5b6000611c8b611c20565b90506000815111611cab5760405180602001604052806000815250611cd6565b80611cb584611877565b604051602001611cc692919061323b565b6040516020818303038152906040525b915050919050565b600081600001549050919050565b6060600082511415611d0f57604051806020016040528060008152509050611e86565b6000604051806060016040528060408152602001613bb86040913990506000600360028551611d3e91906137e9565b611d48919061383f565b6004611d549190613870565b90506000602082611d6591906137e9565b67ffffffffffffffff811115611da4577f4e487b7100000000000000000000000000000000000000000000000000000000600052604160045260246000fd5b6040519080825280601f01601f191660200182016040528015611dd65781602001600182028036833780820191505090505b509050818152600183018586518101602084015b81831015611e45576003830192508251603f8160121c168501518253600182019150603f81600c1c168501518253600182019150603f8160061c168501518253600182019150603f8116850151825360018201915050611dea565b600389510660018114611e5f5760028114611e6f57611e7a565b613d3d60f01b6002830352611e7a565b603d60f81b60018303525b50505050508093505050505b919050565b611ea5828260405180602001604052806000815250612197565b5050565b611eb282611410565b611ef1576040517f08c379a0000000000000000000000000000000000000000000000000000000008152600401611ee8906135f5565b60405180910390fd5b80600660008481526020019081526020016000209080519060200190611f189291906123d3565b505050565b611fb7838383604051602401611f35939291906134b7565b6040516020818303038152906040527fe3849f79000000000000000000000000000000000000000000000000000000007bffffffffffffffffffffffffffffffffffffffffffffffffffffffff19166020820180517bffffffffffffffffffffffffffffffffffffffffffffffffffffffff8381831617835250505050611fd2565b505050565b6001816000016000828254019250508190555050565b60008151905060006a636f6e736f6c652e6c6f679050602083016000808483855afa5050505050565b505050565b60006120218473ffffffffffffffffffffffffffffffffffffffff166121f2565b1561218a578373ffffffffffffffffffffffffffffffffffffffff1663150b7a0261204a61147c565b8786866040518563ffffffff1660e01b815260040161206c9493929190613405565b602060405180830381600087803b15801561208657600080fd5b505af19250505080156120b757506040513d601f19601f820116820180604052508101906120b49190612717565b60015b61213a573d80600081146120e7576040519150601f19603f3d011682016040523d82523d6000602084013e6120ec565b606091505b50600081511415612132576040517f08c379a0000000000000000000000000000000000000000000000000000000008152600401612129906134f5565b60405180910390fd5b805181602001fd5b63150b7a0260e01b7bffffffffffffffffffffffffffffffffffffffffffffffffffffffff1916817bffffffffffffffffffffffffffffffffffffffffffffffffffffffff19161491505061218f565b600190505b949350505050565b6121a18383612205565b6121ae6000848484612000565b6121ed576040517f08c379a00000000000000000000000000000000000000000000000000000000081526004016121e4906134f5565b60405180910390fd5b505050565b600080823b905060008111915050919050565b600073ffffffffffffffffffffffffffffffffffffffff168273ffffffffffffffffffffffffffffffffffffffff161415612275576040517f08c379a000000000000000000000000000000000000000000000000000000000815260040161226c90613635565b60405180910390fd5b61227e81611410565b156122be576040517f08c379a00000000000000000000000000000000000000000000000000000000081526004016122b590613515565b60405180910390fd5b6122ca60008383611ffb565b6001600360008473ffffffffffffffffffffffffffffffffffffffff1673ffffffffffffffffffffffffffffffffffffffff168152602001908152602001600020600082825461231a91906137e9565b92505081905550816002600083815260200190815260200160002060006101000a81548173ffffffffffffffffffffffffffffffffffffffff021916908373ffffffffffffffffffffffffffffffffffffffff160217905550808273ffffffffffffffffffffffffffffffffffffffff16600073ffffffffffffffffffffffffffffffffffffffff167fddf252ad1be2c89b69c2b068fc378daa952ba7f163c4a11628f55a4df523b3ef60405160405180910390a45050565b8280546123df906139b4565b90600052602060002090601f0160209004810192826124015760008555612448565b82601f1061241a57805160ff1916838001178555612448565b82800160010185558215612448579182015b8281111561244757825182559160200191906001019061242c565b5b5090506124559190612459565b5090565b5b8082111561247257600081600090555060010161245a565b5090565b600061248961248484613761565b613730565b9050828152602081018484840111156124a157600080fd5b6124ac848285613972565b509392505050565b6000813590506124c381613b2d565b92915050565b6000813590506124d881613b44565b92915050565b6000813590506124ed81613b5b565b92915050565b60008151905061250281613b5b565b92915050565b600082601f83011261251957600080fd5b8135612529848260208601612476565b91505092915050565b60008135905061254181613b72565b92915050565b60006020828403121561255957600080fd5b6000612567848285016124b4565b91505092915050565b6000806040838503121561258357600080fd5b6000612591858286016124b4565b92505060206125a2858286016124b4565b9150509250929050565b6000806000606084860312156125c157600080fd5b60006125cf868287016124b4565b93505060206125e0868287016124b4565b92505060406125f186828701612532565b9150509250925092565b6000806000806080858703121561261157600080fd5b600061261f878288016124b4565b9450506020612630878288016124b4565b935050604061264187828801612532565b925050606085013567ffffffffffffffff81111561265e57600080fd5b61266a87828801612508565b91505092959194509250565b6000806040838503121561268957600080fd5b6000612697858286016124b4565b92505060206126a8858286016124c9565b9150509250929050565b600080604083850312156126c557600080fd5b60006126d3858286016124b4565b92505060206126e485828601612532565b9150509250929050565b60006020828403121561270057600080fd5b600061270e848285016124de565b91505092915050565b60006020828403121561272957600080fd5b6000612737848285016124f3565b91505092915050565b60006020828403121561275257600080fd5b600061276084828501612532565b91505092915050565b612772816138fe565b82525050565b61278181613910565b82525050565b6000612792826137a6565b61279c81856137bc565b93506127ac818560208601613981565b6127b581613b1c565b840191505092915050565b60006127cb826137b1565b6127d581856137cd565b93506127e5818560208601613981565b6127ee81613b1c565b840191505092915050565b6000612804826137b1565b61280e81856137de565b935061281e818560208601613981565b80840191505092915050565b60008154612837816139b4565b61284181866137de565b9450600182166000811461285c576001811461286d576128a0565b60ff198316865281860193506128a0565b61287685613791565b60005b8381101561289857815481890152600182019150602081019050612879565b838801955050505b50505092915050565b60006128b66025836137de565b91507f68747470733a2f2f6e6674707265766965772e30786465762e636f6465732f3f60008301527f636f64653d0000000000000000000000000000000000000000000000000000006020830152602582019050919050565b600061291c6032836137cd565b91507f4552433732313a207472616e7366657220746f206e6f6e20455243373231526560008301527f63656976657220696d706c656d656e74657200000000000000000000000000006020830152604082019050919050565b6000612982601c836137cd565b91507f4552433732313a20746f6b656e20616c7265616479206d696e746564000000006000830152602082019050919050565b60006129c26024836137cd565b91507f4552433732313a207472616e7366657220746f20746865207a65726f2061646460008301527f72657373000000000000000000000000000000000000000000000000000000006020830152604082019050919050565b6000612a286019836137cd565b91507f4552433732313a20617070726f766520746f2063616c6c6572000000000000006000830152602082019050919050565b6000612a686063836137de565b91507f222c20226465736372697074696f6e223a20224120686967686c79206163636c60008301527f61696d656420636f6c6c656374696f6e206f6620737175617265732e222c202260208301527f696d616765223a2022646174613a696d6167652f7376672b786d6c3b6261736560408301527f36342c00000000000000000000000000000000000000000000000000000000006060830152606382019050919050565b6000612b1a602c836137cd565b91507f4552433732313a206f70657261746f7220717565727920666f72206e6f6e657860008301527f697374656e7420746f6b656e00000000000000000000000000000000000000006020830152604082019050919050565b6000612b80600d836137de565b91507f3c2f746578743e3c2f7376673e000000000000000000000000000000000000006000830152600d82019050919050565b6000612bc06038836137cd565b91507f4552433732313a20617070726f76652063616c6c6572206973206e6f74206f7760008301527f6e6572206e6f7220617070726f76656420666f7220616c6c00000000000000006020830152604082019050919050565b6000612c26602a836137cd565b91507f4552433732313a2062616c616e636520717565727920666f7220746865207a6560008301527f726f2061646472657373000000000000000000000000000000000000000000006020830152604082019050919050565b6000612c8c6029836137cd565b91507f4552433732313a206f776e657220717565727920666f72206e6f6e657869737460008301527f656e7420746f6b656e00000000000000000000000000000000000000000000006020830152604082019050919050565b6000612cf2602e836137cd565b91507f45524337323155524953746f726167653a2055524920736574206f66206e6f6e60008301527f6578697374656e7420746f6b656e0000000000000000000000000000000000006020830152604082019050919050565b6000612d586002836137de565b91507f227d0000000000000000000000000000000000000000000000000000000000006000830152600282019050919050565b6000612d986028836137cd565b91507f43616e6e6f74206d696e7420616e796d6f7265204e4654732c206c696d69742060008301527f72656163686564210000000000000000000000000000000000000000000000006020830152604082019050919050565b6000612dfe6004836137de565b91507f4d656e75000000000000000000000000000000000000000000000000000000006000830152600482019050919050565b6000612e3e6020836137cd565b91507f4552433732313a206d696e7420746f20746865207a65726f20616464726573736000830152602082019050919050565b6000612e7e6031836137cd565b91507f45524337323155524953746f726167653a2055524920717565727920666f722060008301527f6e6f6e6578697374656e7420746f6b656e0000000000000000000000000000006020830152604082019050919050565b6000612ee4602c836137cd565b91507f4552433732313a20617070726f76656420717565727920666f72206e6f6e657860008301527f697374656e7420746f6b656e00000000000000000000000000000000000000006020830152604082019050919050565b6000612f4a6029836137cd565b91507f4552433732313a207472616e73666572206f6620746f6b656e2074686174206960008301527f73206e6f74206f776e00000000000000000000000000000000000000000000006020830152604082019050919050565b6000612fb0602f836137cd565b91507f4552433732314d657461646174613a2055524920717565727920666f72206e6f60008301527f6e6578697374656e7420746f6b656e00000000000000000000000000000000006020830152604082019050919050565b6000613016600a836137de565b91507f7b226e616d65223a2022000000000000000000000000000000000000000000006000830152600a82019050919050565b60006130566021836137cd565b91507f4552433732313a20617070726f76616c20746f2063757272656e74206f776e6560008301527f72000000000000000000000000000000000000000000000000000000000000006020830152604082019050919050565b60006130bc601d836137de565b91507f646174613a6170706c69636174696f6e2f6a736f6e3b6261736536342c0000006000830152601d82019050919050565b60006130fc6031836137cd565b91507f4552433732313a207472616e736665722063616c6c6572206973206e6f74206f60008301527f776e6572206e6f7220617070726f7665640000000000000000000000000000006020830152604082019050919050565b60006131626005836137de565b91507f4f6e696f6e0000000000000000000000000000000000000000000000000000006000830152600582019050919050565b60006131a26005836137de565b91507f434f4c4f520000000000000000000000000000000000000000000000000000006000830152600582019050919050565b60006131e26006836137de565b91507f4c6f76696e6700000000000000000000000000000000000000000000000000006000830152600682019050919050565b61321e81613968565b82525050565b600061323082846127f9565b915081905092915050565b600061324782856127f9565b915061325382846127f9565b91508190509392505050565b600061326b82866127f9565b915061327782856127f9565b915061328382846127f9565b9150819050949350505050565b600061329c828761282a565b91506132a882866127f9565b91506132b4828561282a565b91506132c082846127f9565b91506132cb82612b73565b915081905095945050505050565b60006132e4826128a9565b91506132f082846127f9565b915081905092915050565b600061330682612df1565b915061331282846127f9565b915081905092915050565b600061332882613009565b915061333482856127f9565b915061333f82612a5b565b915061334b82846127f9565b915061335682612d4b565b91508190509392505050565b600061336d826130af565b915061337982846127f9565b915081905092915050565b600061338f82613155565b915061339b82846127f9565b915081905092915050565b60006133b182613195565b91506133bd82846127f9565b915081905092915050565b60006133d3826131d5565b91506133df82846127f9565b915081905092915050565b60006020820190506133ff6000830184612769565b92915050565b600060808201905061341a6000830187612769565b6134276020830186612769565b6134346040830185613215565b81810360608301526134468184612787565b905095945050505050565b60006040820190506134666000830185612769565b6134736020830184613215565b9392505050565b600060208201905061348f6000830184612778565b92915050565b600060208201905081810360008301526134af81846127c0565b905092915050565b600060608201905081810360008301526134d181866127c0565b90506134e06020830185613215565b6134ed6040830184612769565b949350505050565b6000602082019050818103600083015261350e8161290f565b9050919050565b6000602082019050818103600083015261352e81612975565b9050919050565b6000602082019050818103600083015261354e816129b5565b9050919050565b6000602082019050818103600083015261356e81612a1b565b9050919050565b6000602082019050818103600083015261358e81612b0d565b9050919050565b600060208201905081810360008301526135ae81612bb3565b9050919050565b600060208201905081810360008301526135ce81612c19565b9050919050565b600060208201905081810360008301526135ee81612c7f565b9050919050565b6000602082019050818103600083015261360e81612ce5565b9050919050565b6000602082019050818103600083015261362e81612d8b565b9050919050565b6000602082019050818103600083015261364e81612e31565b9050919050565b6000602082019050818103600083015261366e81612e71565b9050919050565b6000602082019050818103600083015261368e81612ed7565b9050919050565b600060208201905081810360008301526136ae81612f3d565b9050919050565b600060208201905081810360008301526136ce81612fa3565b9050919050565b600060208201905081810360008301526136ee81613049565b9050919050565b6000602082019050818103600083015261370e816130ef565b9050919050565b600060208201905061372a6000830184613215565b92915050565b6000604051905081810181811067ffffffffffffffff8211171561375757613756613aed565b5b8060405250919050565b600067ffffffffffffffff82111561377c5761377b613aed565b5b601f19601f8301169050602081019050919050565b60008190508160005260206000209050919050565b600081519050919050565b600081519050919050565b600082825260208201905092915050565b600082825260208201905092915050565b600081905092915050565b60006137f482613968565b91506137ff83613968565b9250827fffffffffffffffffffffffffffffffffffffffffffffffffffffffffffffffff0382111561383457613833613a60565b5b828201905092915050565b600061384a82613968565b915061385583613968565b92508261386557613864613a8f565b5b828204905092915050565b600061387b82613968565b915061388683613968565b9250817fffffffffffffffffffffffffffffffffffffffffffffffffffffffffffffffff04831182151516156138bf576138be613a60565b5b828202905092915050565b60006138d582613968565b91506138e083613968565b9250828210156138f3576138f2613a60565b5b828203905092915050565b600061390982613948565b9050919050565b60008115159050919050565b60007fffffffff0000000000000000000000000000000000000000000000000000000082169050919050565b600073ffffffffffffffffffffffffffffffffffffffff82169050919050565b6000819050919050565b82818337600083830152505050565b60005b8381101561399f578082015181840152602081019050613984565b838111156139ae576000848401525b50505050565b600060028204905060018216806139cc57607f821691505b602082108114156139e0576139df613abe565b5b50919050565b60006139f182613968565b91507fffffffffffffffffffffffffffffffffffffffffffffffffffffffffffffffff821415613a2457613a23613a60565b5b600182019050919050565b6000613a3a82613968565b9150613a4583613968565b925082613a5557613a54613a8f565b5b828206905092915050565b7f4e487b7100000000000000000000000000000000000000000000000000000000600052601160045260246000fd5b7f4e487b7100000000000000000000000000000000000000000000000000000000600052601260045260246000fd5b7f4e487b7100000000000000000000000000000000000000000000000000000000600052602260045260246000fd5b7f4e487b7100000000000000000000000000000000000000000000000000000000600052604160045260246000fd5b6000601f19601f8301169050919050565b613b36816138fe565b8114613b4157600080fd5b50565b613b4d81613910565b8114613b5857600080fd5b50565b613b648161391c565b8114613b6f57600080fd5b50565b613b7b81613968565b8114613b8657600080fd5b5056fe416e204e4654207769746820746865204944206f6620257320686173206265656e206d696e74656420746f2025734142434445464748494a4b4c4d4e4f505152535455565758595a6162636465666768696a6b6c6d6e6f707172737475767778797a303132333435363738392b2fa2646970667358221220815e44c1839370002563fbc750f0eda080a382068089ff069bbe82cb1c96866964736f6c634300080000333c73766720786d6c6e733d27687474703a2f2f7777772e77332e6f72672f323030302f73766727207072657365727665417370656374526174696f3d27784d696e594d696e206d656574272076696577426f783d273020302033353020333530273e3c7374796c653e2e62617365207b2066696c6c3a2077686974653b20666f6e742d66616d696c793a2073657269663b20666f6e742d73697a653a20323470783b207d3c2f7374796c653e3c726563742077696474683d273130302527206865696768743d2731303025272066696c6c3d27272f3e3c7465787420783d273530252720793d273530252720636c6173733d27626173652720646f6d696e616e742d626173656c696e653d276d6964646c652720746578742d616e63686f723d276d6964646c65273e",
    "linkReferences": {},
    "deployedLinkReferences": {}
}